:100000000C9473000C94090F0C94F40E0C94090FCB
:100010000C94090F0C94090F0C94090F0C94090F00
:100020000C94090F0C94090F0C94090F0C94090FF0
:100030000C94090F0C94090F0C94090F0C94090FE0
:100040000C94090F0C94090F0C94090F0C94090FD0
:100050000C94090F0C94090F0C94090F0C94090FC0
:100060000C94090F0C94090F0C94090F0C94090FB0
:100070000C94090F0C94090F0C94090F0C94090FA0
:100080000C94090F0C94090F0C94090F0C94090F90
:10009000E402BA02DF04DF04DF04DF04DF04DF046C
:1000A000B003DF04DF04DF04DF04A904620360049B
:1000B0002903E503EB03F803040411041E042B04D5
:1000C0003804600060028060026013001E2060132C
:1000D00060158060156017001E3160176019806020
:1000E00019601A00042911241FBECFEFCDBFDFE72E
:1000F000DEBFE2ECF0E040E017C0B591A59135918C
:100100002591059107FD0CC095918591EF01F92F7F
:10011000E82F05900D92A217B307D9F7FE0104C08E
:100120001D92A217B307E1F7E63EF40731F70E94EC
:0A01300015020C94A90EF894FFCFFD
:10013A000A0D00436F6D6D616E64733A0A0D0045D6
:10014A00202D2028456E61626C652920426F6172FC
:10015A0064204163746976650A0D0044202D2028C5
:10016A0044697361626C652920426F61726420532D
:10017A0074616E6462790A0D005478202D20285427
:10018A007269676765722920456E746572205472B8
:10019A00696767657220536F757263653A204920F3
:1001AA002D20496E7465726E616C2C2045202D20BD
:1001BA0045787465726E616C0A0D005278202D20A4
:1001CA0028526174652920456E74657220547269DB
:1001DA006767657220526174653A2053202D203179
:1001EA002E356B487A2C2046202D20384D487A0D22
:1001FA00004C78202D20284C45442920456E7465F2
:10020A0072204C4544206E756D6265723A20312D1C
:10021A003720283436356E6D2D3233356E6D292CE4
:10022A00206F72203020666F7220616C6C206F66BE
:10023A00660D005378787878202D20285365742924
:10024A0020456E74657220313020626974204269DB
:10025A006173204441432056616C75653A20303001
:10026A0030302D313032330D0051202D2028517578
:10027A00657279292042696173203132626974207A
:10028A004144432056616C75652069733A200D001C
:10029A000D0A426F617264204163746976650D00CC
:1002AA000D0A426F617264205374616E6462790D43
:1002BA00000D0A5472696767657220536F7572631D
:1002CA00653A2053657420496E7465726E616C0DCF
:1002DA00000D0A5472696767657220536F757263FD
:1002EA00653A205365742045787465726E616C0DA9
:1002FA00000A0D496E76616C696420436F6D6D6109
:10030A006E64210A0D000D0A506C65617365204503
:10031A006E61626C6520426F6172642066697273F5
:10032A00743A20274527200A0D000D0A547269677E
:10033A0067657220526174653A2053657420312EC4
:10034A00356B487A0D000D0A547269676765722029
:10035A00526174653A2053657420384D487A0D000D
:10036A000D0A4C454473206F66660D000D0A34353C
:10037A00306E6D204C4544206F6E0D000D0A3431ED
:10038A00306E6D204C4544206F6E0D000D0A3336D9
:10039A00356E6D204C4544206F6E0D000D0A3239C2
:1003AA00356E6D204C4544206F6E0D000D0A3237B4
:1003BA00386E6D204C4544206F6E0D000D0A3235A3
:1003CA00356E6D204C4544206F6E0D000D0A323398
:1003DA00356E6D204C4544206F6E0D000D0A426942
:1003EA00617320444143205365740D00426961736F
:0C03FA0020414443203D202564000D00FC
:1004060068076C094C836A9074A07AC0008068887B
:0604160000846C820081ED
:07041C00286E756C6C2900CD
:06042300286E696C29003F
:0104290001D1
:10042A00CF93DF93CDB7DEB76797CDBFDEBF0E940C
:10043A00760EA0E4B4E032E011963C93119716963A
:10044A003C93169781E011968C93119716968C938C
:10045A001697E0EAF4E090E29183968340E14183C3
:10046A00468328E02183268394E09183968331830F
:10047A00368381838683E0E6F4E02183268311961E
:10048A002C93119716962C9316979183968320E8AE
:10049A002183268311969C93119716969C93A0EB21
:1004AA00B0E095E812969C9312979C93ABE2B1E068
:1004BA001197F1F700C000009689987F968B96896C
:1004CA009460968B9689977F968BA0EAB6E091EC1A
:1004DA009C9390EC12969C9312979FEF13969C9381
:1004EA00A0E0B6E012961C9212978C9318968C9301
:1004FA00418383E08093E2050E94140C00E016E039
:10050A00FE0131961F019F0140E82D8B3E8B4F8BD8
:10051A004E0135E0830E911C0F2EF0EA4F2EF6E0C5
:10052A005F2EF02D6894662466F8772472F80F2EF1
:10053A00F0EACF2EF4E0DF2EF02D0E94EE0E882393
:10054A00E1F30E94C60E8A30C1F38D30B1F38823DD
:10055A00A1F390E0FC01E454F109E131F10508F05E
:10056A0029C2E85BFF4F0C94FA0E80ECD201129676
:10057A008C9312978FEF13968C9384E0F301858303
:10058A00FFE729EA33E0F15020403040E1F700C0AC
:10059A000000E0E6F4E090E895834FE799EAA3E0EB
:1005AA0041509040A040E1F700C0000085831092BE
:1005BA0019606AE972E080E00E94B40EBECF80EC56
:1005CA00F20182838FEF838381E0D60116968C93A2
:1005DA00169732E016963C93169794E016969C93DB
:1005EA00169728E016962C93169740E116964C9388
:1005FA00169740E216964C93F30186833683E0E61B
:10060A00F4E026831092010A96832FE739EA43E041
:10061A00215030404040E1F700C0000020E8268326
:10062A00AFE7B9EAE3E0A150B040E040E1F700C02B
:10063A000000D30116969C93809319606AEA72E0CF
:10064A0080E00E94B40E79CF0E94B60D9091196095
:10065A00911124C0853459F0893491F488E080934B
:10066A0065046BEB72E080E00E94B40E66CF88E00E
:10067A00809366046BED72E080E00E94B40E5DCF59
:10068A002BEF32E040E04F933F932F930E94D30D1C
:10069A000E94140C0F900F900F904FCF913009F0D9
:1006AA004CCF20E133E040E04F933F932F930E94D9
:1006BA00D30D0F900F900F9040CF0E94B60D9091DE
:1006CA001960911139C08634B9F0833539F582E061
:1006DA008093E705E0E0FAE081E0838380E18183AB
:1006EA008AEF87A38DE781A78BE0808364E373E0B9
:1006FA0080E00E94B40E21CF92E09093E705E0E0FB
:10070A00FAE081E0838320E1218397A381A7808394
:10071A0060E573E080E00E94B40E0FCF2BEF32E069
:10072A0040E04F933F932F930E94D30D0E94140CE5
:10073A000F900F900F9001CF913009F0FECE20E17B
:10074A0033E040E04F933F932F930E94D30D0F90D5
:10075A000F900F90F2CE0E94B60DE82F80ED8E0F0B
:10076A008A30F0F491E0D60116969C93169782E0AF
:10077A0016968C93169724E016962C93169728E0D3
:10078A0016962C93169720E116962C93169720E22C
:10079A0016962C93D30116969C93169716968C93BD
:1007AA0080911960811178C08E2F90E0FC01F0973A
:1007BA00E830F10508F062C0E75AFF4F0C94FA0ED0
:1007CA006AE673E080E00E94B40EB7CE81E0F601DB
:1007DA00858382E0D30115968C9366E773E080E007
:1007EA000E94B40EAACE82E0F6018583D301159643
:1007FA008C9366E873E080E00E94B40E9ECE84E09B
:10080A00F601858382E0D30115968C9366E973E03D
:10081A0080E00E94B40E91CE88E0F601858382E0E2
:10082A00D30115968C9366EA73E080E00E94B40EB9
:10083A0084CE80E1F601858382E0D30115968C93FC
:10084A0066EB73E080E00E94B40E77CE80E2F60198
:10085A00858382E0D30115968C9366EC73E080E081
:10086A000E94B40E6ACE81E0F301858382E085831B
:10087A0066ED73E080E00E94B40E5FCE2BEF32E0AB
:10088A0040E04F933F932F930E94D30D0E94140C84
:10089A000F900F900F9051CE813009F04ECE20E18B
:1008AA0033E040E04F933F932F930E94D30D0F9074
:1008BA000F900F9042CEDE0111965D017D010E94DC
:1008CA00B60DF70181937F01E815F905C1F780910B
:1008DA00196081112AC080E090E0D5012D915D0157
:1008EA00AC01440F551F880F991F880F991F880F55
:1008FA00991F840F951F30E020533109820F931FEF
:10090A008A169B0651F7282F2295220F220F207C48
:10091A00F20122839695879596958795838366EE4D
:10092A0073E080E00E94B40E08CE813009F005CE53
:10093A0020E133E040E04F933F932F930E94D30D81
:10094A000F900F900F90F9CD81E0D8011A968C93F1
:10095A00F801858580FFFCCF808991898093136097
:10096A0090931460E0901360F09014602AE331E0F1
:10097A0040E04F933F932F930E94D30DFF92EF9243
:10098A0026EF33E040E04F933F932F933F922F920D
:10099A000E94630EAF89AF93BE89BF93ED89EF932F
:1009AA000E94D30D64E074E080E00E94B40ECDBFD3
:1009BA00DEBFC3CD8BEF92E0A0E0AF939F938F93FE
:1009CA000E94D30D0E94140C0F900F900F90B5CD7A
:1009DA002F923F924F926F927F928F929F92AF92F5
:1009EA00BF92CF92DF92EF92FF920F931F93CF9312
:1009FA00DF93CDB7DEB72E97CDBFDEBF4C016B01BB
:100A0A00380119821A828FEF9FEF8B839C831D8294
:100A1A001E824F83588729873A87A12CB12CD60189
:100A2A002D913D914C912A0D3B1D411DB7FC4A95D4
:100A3A00F901849147FD8081811116C0F601208356
:100A4A0031834283F901849147FD8081853209F01F
:100A5A000FC21901442EFFEF2F1A3F0A4F0AD6017F
:100A6A002D923D924C921BC0853241F3B401082E5F
:100A7A00000C990B0E94830B4FEFA41AB40ACFCF34
:100A8A002C32DCF02D3229F529813A812160298323
:100A9A003A830196A11DF60180839183A283F60110
:100AAA0080819181A281FC012491A7FD20812B32B2
:100ABA0039F729813A812460EACF203221F4298149
:100ACA003A812860E4CF233251F429813A812061A6
:100ADA00DECF203321F429813A812260D8CFB701B1
:100AEA00C6010E94930C8D839E8397FF0BC02981B8
:100AFA003A81F1E02F2729833A83919581959109CB
:100B0A008D839E8389819A8180FF03C08D7F89832B
:100B1A009A83F60180819181A281FC012491A7FD2B
:100B2A0020812E3261F40196A11DF6018083918302
:100B3A00A283B701C6010E94930C8B839C83C601D2
:100B4A000E94530A182FD6012C9111968C91119755
:100B5A0012969C91E22FF82F849197FD8081082E9E
:100B6A00000C990B0E94E60E893609F44AC084F4F7
:100B7A00833609F419C134F4853209F445C1813642
:100B8A00E1F050C18436E9F188360CF4E9C04AC173
:100B9A00803709F4B0C03CF48E3609F4D6C08F36DB
:100BAA0009F46DC03FC1853709F44AC0883709F492
:100BBA0085C0833709F036C10DC1612F70E0A701E6
:100BCA00CE010B960E940000892B09F448C1F60158
:100BDA0080819181A2819C014A2F2F5F3F4F4F4F05
:100BEA00208331834283FC012491A7FD2081AE0139
:100BFA00455F5F4FBE016F5F7F4FC4010E940000D7
:100C0A002BC1612F70E0970141E050E0CE010B96B5
:100C1A000E942709892B09F422C1F601808191815A
:100C2A00A2810196A11D80839183A283AE01455FB3
:100C3A005F4FBE016F5F7F4FC4010E94B4080CC1B1
:100C4A00612F70E0970140E050E0CE010B960E94C0
:100C5A002709892B09F403C1F60180819181A281B8
:100C6A000196A11D80839183A283AE01455F5F4FE8
:100C7A00BE016F5F7F4FC4010E94CC0BEDC0612F94
:100C8A0070E0970140E050E0CE010B960E942709E0
:100C9A00892B09F4E4C0F60180819181A281019631
:100CAA00A11D80839183A283AE01455F5F4FBE0180
:100CBA006F5F7F4FC4010E94F909CEC0612F70E0B7
:100CCA00970140E050E0CE010B960E942709892B3C
:100CDA0009F4C5C0F60180819181A2819C014A2F45
:100CEA002F5F3F4F4F4F208331834283FC01249172
:100CFA00A7FD208120C0970140E050E060EF70E03E
:100D0A00CE010B960E942709892B09F4A8C0F60187
:100D1A0080819181A2810196A11D80839183A28302
:100D2A008B859C85892B31F400E010E023E234E0C6
:100D3A0040E08CC028E7AE01455F5F4FBE016F5FA0
:100D4A007F4FC4010E94530787C0A501460D571D56
:100D5A00612F70E09701CE010B960E9400007FC0C0
:100D6A00612F70E0A701CE010B960E940000892B2B
:100D7A0009F475C0F60180819181A2819C014A2FF4
:100D8A002F5F3F4F4F4F208331834283FC012491D1
:100D9A00A7FD2081AE01455F5F4FBE016F5F7F4FA8
:100DAA00C4010E94000058C0103809F058C0F6016A
:100DBA0080819181A2810196A11D80839183A28362
:100DCA00D701ED91FC911197CF0102968D939C93D7
:100DDA00808126C0103809F042C0F60180819181D5
:100DEA00A2810196A11D80839183A283D701ED91EF
:100DFA00FC911197CF0103968D939C9320813181A9
:100E0A00428100E010E022C0103849F5F601208145
:100E1A00318142812F5F3F4F4F4F2083318342837D
:100E2A008B870EC085E28B87F6012082318242824F
:100E3A0019821A821D821E828FEF9FEF8B839C83F9
:100E4A009E01255F3F4F40E801E010E0BE016F5F61
:100E5A007F4FC4010E94560C8A0D9B1D0AC0F601E1
:100E6A0080819181A2810196A11D80839183A283B1
:100E7A00C5012E96CDBFDEBFDF91CF911F910F9195
:100E8A00FF90EF90DF90CF90BF90AF909F908F90A0
:0C0E9A007F906F904F903F902F90089534
:100EA600AFE0B0E0E9E5F7E00C94EC0D1C016B0156
:100EB60049835A832B83FB018281938184809580A9
:100EC600E080F180A680B78097FD03C0E894E1F842
:100ED60002C081E090E0E981FA8140805180628021
:100EE60073809701207133272C833D838401E4FEB0
:100EF60007C0411451046104710411F00250110934
:100F0600F701E870FF27EE83FF83E3FE02C001507E
:100F16001109F6010084F185E02D3197EE87FF87F0
:100F2600EA0DFB1D10829C01201B310B2887398797
:100F3600C701827099278A879B87EB818E2FEE0FD8
:100F4600990B9C01215431092C873D872E853F85BD
:100F56002230310530F48C819D81892B09F041C006
:100F66005BC0411451046104710459F18E859F855B
:100F760001978E879F87C2018F7099278A309105C6
:100F860014F4C09602C0895A9F4FEC85FD857A9766
:100F960048F49C012062215631092A31310510F4AA
:100FA6000E94BD0EEE85FF85EA0DFB1D8083015074
:100FB600110984E076946794579447948A95D1F7FB
:100FC600C5CF88859985800F911F1816190674F26A
:100FD600101611060CF0BFCFEA85FB85EF2B31F614
:100FE600BACFE981FA8180819181A281B381892B6F
:100FF6008A2B8B2B89F0EE85FF85EA0DFB1D319739
:101006002B8120838E859F8502978E879F87FC0183
:10101600EA0DFB1D80E38083EE81FF81EF2B59F003
:101026002E853F85215031092E873F87F901EA0D2C
:10103600FB1D80E28083F601208531852150310930
:101046008E859F85281B390B8A0D9B1DAC0160E898
:101056008401C1010E94EE0A9C01F1018081918107
:1010660090FF06C0F60182819381821793070CF4E4
:0A107600C9012F96E2E10C94350E3B
:10108000CF93DF930E946F0D80E094E0FC0110820B
:10109000C0E4D4E01882A0E6B4E01C9240EA54E038
:1010A00020E2FA012083FC0114821C8214961C9217
:1010B0001497FA011482FC01108A118A128A138A89
:1010C000148A158A168A178A188A198A1A8A1B8A14
:1010D0001C8A1D8A1E8A1F8A50961C925097519610
:1010E0001C92519752961C92529753961C9253976A
:1010F00054961C92549755961C92559756961C924E
:10110000569757961C925797FA01108A118A128A9D
:10111000138A148A158A28E0268B178AFC01138605
:101120001686158614861B861E861D861C861B96B3
:101130001C921B971E961C921E971D961C921D9723
:101140001C961C92FA011386168615861486E0EE0C
:10115000F5E01182108215821782108611861682A0
:081160001282DF91CF91089586
:10116800A2E0B0E0EAEBF8E00C94EC0D4C016B0166
:10117800FB0122813381A480B5808081918189839C
:101188009A8366807780FA0120803180428053807C
:10119800B201A10157FE07C044275527BA014219D9
:1011A80053096409750937FD03C08D7F89839A83C4
:1011B800950157FC05C0898182FD02C083FF02C0EA
:1011C80021503109CE0101967C010AE010E0C601E8
:1011D8000E94940957FC03C0298122FF0AC0019785
:1011E800F301E80FF91F57FC02C02BE209C02DE2FA
:1011F80007C023FF06C00197F301E80FF91F20E29B
:101208002083E980FA80F601208531852150310953
:10121800281B390B860D971DAC0160E88501C401B8
:101228000E94EE0A9C01F4018081918190FF06C022
:10123800F60182819381821793070CF4C9012296E3
:06124800E2E10C94350EFA
:10124E00CF93DF93DC01F90168387105F1F05CF49E
:10125E006138710561F164387105C9F16038710545
:10126E0009F056C034C0603C710561F1603F7105F4
:10127E0009F443C0603A710509F04AC0C081D181BA
:10128E00CE010296808391832AC0C081D181CE0186
:10129E00029680839183452B39F04881042E000CF1
:1012AE00550B660B770B21C0488150E02EC0C081D4
:1012BE00D181CE01049680839183488159816A81C0
:1012CE007B8113C0C081D181CE0102961AC0C0812C
:1012DE00D181CE01029680839183452BA1F0488166
:1012EE005981052E000C660B770B4D935D936D9314
:1012FE007C93139781E090E00DC0C081D181CE0127
:10130E000396808391834881598160E070E0EDCF30
:0A131E0080E090E0DF91CF91089588
:10132800A0E0B0E0EAE9F9E00C94EE0DDC01280158
:101338001696AD90BC901797F7018081918112960F
:10134800ED91FC9113971896CD91DC9119972197FF
:10135800F7FF02C0E1E0F0E0CA0DDB1D1882690169
:10136800A1E0B0E08F01021B130B4C01F2E08F22C9
:101378009924052C000C66087708CE018A199B0968
:10138800CA15DB0519F1411551056105710589F08B
:10139800CB01BA01A30192010E94940DCA01A62FA4
:1013A800B72F605D6A9341E0C41AD108A901BC0156
:1013B800E4CF98012C0D3D1D121613064CF31C1496
:1013C8001D0434F48114910419F702C080E090E000
:1013D800AB2B31F4F701208131812F7E20833183BB
:0A13E800CDB7DEB7E0E10C94370E3C
:1013F200A2E0B0E0EFEFF9E00C94F00D5C016B01BC
:10140200FB0122813381848095808081918189834F
:101412009A836680778037FD03C08D7F89839A83A4
:10142200FA014081518162817381CE0101967C0172
:1014320008E010E09401C6010E949409298124FF6A
:1014420006C00197F301E80FF91F20E320832981E9
:1014520023FF06C00197F301E80FF91F20E2208362
:10146200E980FA80F6012085318521503109281B57
:10147200390B860D971DAC0160E88401C5010E94FD
:10148200EE0A9C01F5018081918190FF06C0F60170
:1014920082819381821793070CF4C9012296EEE0B0
:0414A2000C94390E5F
:1014A600CF92DF92EF92DC0190E0292F30E0220FFD
:1014B600331F6901032E000CEE086E2DA6014A5F4C
:1014C6005B4F6F4F6A01E62EFA018491E7FC80813B
:1014D60081110DC02F5F3F4F032E000C440B2A5F76
:1014E6003B4F4F4FF901849147FD808124C0CD9039
:1014F600DD90EC901297F6014491E7FC408184134D
:1015060015C02F5F3F4F032E000C440B2A5F3B4F45
:101516004F4FF901949147FD90815FEFC51AD50AA7
:10152600E50ACD92DD92EC92129701C09F5F9B3047
:0E15360008F4BBCF892FEF90DF90CF9008957F
:101544006F927F928F92EF92FF920F931F93CF939C
:10155400DF93CDB7DEB76197CDBFDEBFFE01319615
:1015640051E1DF011D925A95E9F7A2E0B1E0A983A8
:10157400BA838B839C8377FF09C08FE490E08093C8
:101584000060909301608FEF9FEF19C03901842EA2
:101594007C01615071096E837F839801682DA301DA
:1015A400CF010E941D0E488559852E813F81421727
:1015B400530708F49A01F701E20FF31F10826196B2
:1015C400CDBFDEBFDF91CF911F910F91FF90EF90C0
:0815D4008F907F906F90089545
:1015DC006F927F928F92AF92BF92CF92DF92EF92E7
:1015EC00FF920F931F93CF93DF935C013A01862EEA
:1015FC00E901670181E0C822DD24E0FC03C020176B
:10160C00310758F09E01682DA301C5010E94090DF8
:10161C00C017D10710F0CE0118C07801EC1AFD0AE2
:10162C00E114F10449F0B50180E290E00E94830BD3
:10163C0081E0E81AF108F4CFCD2831F49E01682D31
:10164C00A301C5010E94090DC801DF91CF911F9123
:10165C000F91FF90EF90DF90CF90BF90AF908F9055
:06166C007F906F900895CD
:10167200A3E8B0E0EFE3FBE00C94F20D5C0149015A
:10168200CF57DF4F488359836A83C158D040C12C5A
:10169200D12CCF57DF4F2881C158D040CE57DF4FD2
:1016A2009881C258D040CD57DF4F8881C358D0406F
:1016B200E22FF92F949187FD90819923E9F074012B
:1016C200860120E830E0AE014F5F5F4FBE016F57E9
:1016D2007F4FC5010E94ED048C0D9D1D8C159D054B
:1016E2004CF48FE490E080930060909301608FEF60
:1016F2009FEF03C06C01CDCFC601CD57DF4FECE0A9
:041702000C943B0EFA
:101706000F931F93CF93DF93DB012D913C9111979C
:1017160030FF25C017964D915C91189715962D911F
:101726003C9116974217530778F41296ED91FC9167
:101736001397808312962D913C9113972F5F3F4FFD
:1017460012962D933C93139717962D913C911897CB
:101756002F5F3F4F17962D933C93189715C01D96F4
:10176600ED91FC911E97309719F48FEF9FEF0CC007
:101776008B01EC010995892BC1F7F80187819085CA
:10178600019687839087CE01DF91CF911F910F91AC
:021796000895B4
:10179800A2E0B0E0E2EDFBE00C94F00D5C016B011F
:1017A800FB012281338184809580808191818983A6
:1017B8009A836680778037FD03C08D7F89839A83FB
:1017C800FA014081518162817381CE0101967C01C9
:1017D8000AE010E09401C6010E949409E980FA80A9
:1017E800F6012085318521503109281B390B860DDA
:1017F800971DAC0160E88401C5010E94EE0A9C01B6
:10180800F5018081918190FF06C0F6018281938164
:10181800821793070CF4C9012296EEE00C94390E56
:101828008AE391E0A0E0AF939F938F930E94D30D3A
:101838008DE391E0A0E0AF939F938F930E94D30D27
:1018480089E491E0A0E0AF939F938F930E94D30D1A
:1018580085E691E0A0E0AF939F938F930E94D30D0C
:1018680083E891E0A0E0AF939F938F930E94D30DFC
:1018780065EC71E080E00E94B40E6BEF71E080E0EF
:101888000E94B40E6DE372E080E00E94B40E63E73C
:1018980072E080E00E94B40E8DB79EB70F968DBFA0
:0418A8009EBF089542
:1018AC006F927F928F92CF92DF92EF92FF920F9373
:1018BC001F93CF93DF936C01FB013901842EC80178
:1018CC00C281D38104811581E080F180232B242BEC
:1018DC0031F42CE1622E24E0722E20E0822E00974F
:1018EC0021F4882DB3010E944D0ED7FD04C0C817FA
:1018FC00D90708F4CE019C01682DA301C6010E94F2
:10190C00EE0ADF91CF911F910F91FF90EF90DF9036
:0A191C00CF908F907F906F90089598
:10192600DC012D913D914C911297F901849147FD6F
:1019360080818A3221F080E090E07AE011C02F5F4A
:101946003F4F4F4F2D933D934C93DB01ED91FC910F
:101956001197CF0102968D939C9380819181089572
:101966002D913D914C911297F901549147FD50816B
:1019760050535A3080F4789FF001799FF00D11246E
:10198600CF01850F911D2F5F3F4F4F4F2D933D93F5
:081996004C931297E5CF089570
:10199E00CF92DF92EF92CF93DF93FB01249187FDDD
:1019AE002081DA011D96ED91FC911E97EF2B21F00F
:1019BE00EA016B01E82E0FC08FEF9FEF1DC0822F43
:1019CE000995BFEFCB1ADB0AEB0A892BA9F7F601B3
:1019DE002491E7FC2081ED85FE85BE012111EFCF1C
:1019EE008AE0099521E030E0892B11F420E030E007
:1019FE0088279927821B930BDF91CF91EF90DF9071
:041A0E00CF900895D8
:101A12006F927F928F92CF92DF92EF920F931F93EA
:101A2200CF93DF938C016A01E62EE9013A01862EFB
:101A3200620E731E811C37FD8A94C614D704E80413
:101A420079F0F6018491E7FC8081B801082E000C40
:101A5200990B0E94830B8FEFC81AD80AE80AEDCFC0
:101A6200CE01DF91CF911F910F91EF90DF90CF9038
:081A72008F907F906F900895A2
:101A7A0040E068ED88E790E00E94050F40E068EDDD
:101A8A008CE790E00E94050F40E068ED81E690E067
:101A9A000E94050F40E068ED82E690E00E94050F83
:101AAA0040E068ED83E690E00E94050F40E068EDB3
:101ABA0080E690E00E94050F40E068ED85E690E040
:101ACA000E94050F44E268ED88E690E00E94050F47
:041ADA0080E008950B
:101ADE00E0EBF4E0808188608193E83B84E0F807D6
:101AEE00C9F7E0E1F4E0808188608193E83184E019
:101AFE00F807C9F7E0E5F4E0808188608193E83566
:101B0E0084E0F807C9F7E0E7F4E08081886081930C
:0A1B1E00E83784E0F807C9F70895DE
:101B2800A1E21A2EAA1BBB1BFD010DC0AA1FBB1FD9
:101B3800EE1FFF1FA217B307E407F50720F0A21B4B
:101B4800B30BE40BF50B661F771F881F991F1A94B8
:101B580069F760957095809590959B01AC01BD01E2
:041B6800CF0108950C
:101B6C00CF93C2E30E94EE0E882349F00E94C60E6A
:101B7C008A3031F08D3021F081110DC001C080E030
:101B8C002FEF32E597E0215030409040E1F700C054
:0A1B9C000000C15039F7CF91089501
:101BA600A0E0B0E0E9EDFDE00C94FC0D9E012B5F9A
:101BB6003F4FF9014191519161919F01E09115606B
:101BC600F0911660808191810E941D0EE2E00C94D6
:021BD600450EBA
:101BD8002F923F924F925F926F927F928F929F9235
:101BE800AF92BF92CF92DF92EF92FF920F931F9323
:101BF800CF93DF93CDB7DEB7CA1BDB0BCDBFDEBFFC
:021C080009943D
:101C0A00E0E0F8E081E493E080879187158280EC38
:101C1A00868383E087831386148616861586E09169
:101C2A001560F091166082E090E6808391830895B2
:101C3A00A2E0B0E0E3E2FEE00C94FA0D8C01298305
:101C4A003A839E012F5F3F4F0E94390BF801208192
:101C5A0024FF02C08FEF9FEF2296E4E00C94430E1C
:101C6A002A88398848885F846E847D848C849B8422
:101C7A00AA84B984C884DF80EE80FD800C811B8130
:101C8A00AA81B981CE0FD11DCDBFDEBFED01089566
:101C9A00CF92DF92EF926B01E82EA82FCB01FC01C5
:101CAA002491A7FD2081222319F00196A11DF7CFC7
:0C1CBA008C199D09EF90DF90CF900895E9
:101CC600A0E0B0E0E9E6FEE00C94FC0D9E01265F84
:101CD6003F4F4F81588569858D819E810E949D0E5B
:061CE600E2E00C94450E43
:101CEC000E9440080E94910E0E94DE0E0E94D60EA9
:0E1CFC000E943D0D0E94850E0E94050E089567
:101D0A0040E068ED80E191E00E94050FE0E1F1E03A
:081D1A001282138280E008959B
:101D220040E068ED80EA90E00E94050FE0EAF0E012
:081D32001186108680E008957F
:101D3A000F931F9389019A01462F6FEF7FE70E9445
:081D4A00A20A1F910F910895F8
:101D5200EC010E940E0F0E940D0FCE010E940F0F88
:061D6200CE010E940B0FF0
:101D6800E0911560F0911660408151810E94CF0C7E
:021D78000895CC
:101D7A009C01215631092A31310510F48F759927B2
:021D8A000895BA
:101D8C00E0E0F8E084818823ECF780910008089566
:101D9C00E0E0F8E0948195FFFDCF80930208089570
:101DAC0040E068ED80E590E00E94050F80E008952A
:101DBC0040E068ED80E091E00E94050F80E008951E
:101DCC009C01215431092A31310508F480620895AF
:0C1DDC0080910408881F8827881F089544
:0C1DE8008F9381E08093AA008F911895E2
:0C1DF400EE0FFF1F0590F491E02D099404
:0A1E00000E94CE0E80E090E00895ED
:081E0A00FC0164BF4083089550
:041E12000C9400002C
:041E16000E949B008B
:021E1A00089529
:021E1C00089527
:021E1E00089525
:101E200003000000000000000000000000000F00A0
:011E300000B1
:021E3100176038
:02000004008278
:090000000000000000D00800001F
:00000001FF
